:020000040800F2
:10000000D007002099010008150A00082F070008F2
:10001000110A000805050008211000080000000072
:10002000000000000000000000000000810B00083C
:100030000106000800000000890A0008950C00086D
:10004000B3010008B3010008B3010008B3010008C0
:10005000B3010008B3010008B3010008B3010008B0
:10006000B3010008B3010008B3010008B3010008A0
:10007000B3010008B3010008B3010008B301000890
:10008000B3010008B3010008B3010008B301000880
:10009000B3010008B3010008B3010008B301000870
:1000A000B3010008B3010008B3010008B301000860
:1000B000B3010008B3010008B3010008B301000850
:1000C000B3010008B3010008B3010008B301000840
:1000D000B3010008F90C0008610D0008B301000825
:1000E000B3010008B3010008B301000800F002F8F2
:1000F00000F042F80AA090E8000C82448344AAF180
:100100000107DA4501D100F037F8AFF2090EBAE87D
:100110000F0013F0010F18BFFB1A43F0010318473B
:100120007412000094120000103A24BF78C878C1FD
:10013000FAD8520724BF30C830C144BF04680C60ED
:10014000704700000023002400250026103A28BF35
:1001500078C1FBD8520728BF30C148BF0B60704739
:10016000642900F0B980732900F07F810020704776
:100170001FB51FBD10B510BD00F092F91146FFF775
:10018000F7FF01F041F800F0B0F903B4FFF7F2FF18
:1001900003BC00F047FF00000948804709480047BA
:1001A000FEE7FEE7FEE7FEE7FEE7FEE7FEE7FEE727
:1001B000FEE7FEE704480549054A064B7047000084
:1001C000990C0008ED000008D0010020D0070020A5
:1001D000D0030020D0030020704700000FB4044972
:1001E00010B503AA029800F045F910BC5DF814FBA5
:1001F000300000200FB41CB5074B06AA7B446946AB
:100200000090059800F007F90020694600F016F903
:100210001CBC5DF814FB00003D0200002DE9F0411C
:100220000E460446002020622046E168884730B32D
:10023000252805D0D4E901219047206A401CF2E727
:10024000E168204600278847050018D0A5F1410045
:10025000192802D820354FF4006732462946204637
:100260002760FFF77DFF40B1012804D0F61D26F07E
:1002700007060836D8E7361DD6E72846DAE7206AAB
:10028000BDE8F08170B50C460546012A05D02878F6
:10029000800600D5EA69002302E0012305E05B1C2B
:1002A000934202D2E05C0028F9D1A869E618C01A8E
:1002B000A861286A184428622846AFF3008004E049
:1002C000D5E9012114F8010B9047B442F8D3284630
:1002D000AFF3008070BD00002DE9F0410646002418
:1002E00010687529314616A510D0AFF3008000289C
:1002F00002DA404213A507E031688A0701D512A54A
:1003000002E0490704D511A5012401E0AFF3008004
:1003100000210A2206F1240709E0B0FBF2FCB0FB41
:10032000F2F302FB1C00303078541846491C0028B8
:10033000F3D123462A463046BDE8F04100F00CB820
:10034000000000002D0000002B0000002000000035
:1003500070477047704770472DE9F0470D46994642
:100360009246044600F124080168880604D5E06935
:1003700021F01001216000E00120A84201DD471BAF
:1003800000E00027A1697A1902EB0900081AA061B0
:100390002078C00602D42046AFF30080002608E093
:1003A000D4E901211AF806009047206A401C761C07
:1003B00020624E45F4DB2078C0060AD52046AFF314
:1003C000008006E0D4E9012130209047206A401CDB
:1003D0002062381EA7F10107F4DC07E0D4E901210F
:1003E00018F805009047206A401C2062281EA5F1DD
:1003F0000105F3DC2046AFF300802078000602D52B
:100400000220BDE8F0870120FBE7000001694A1CDB
:1004100002610878704700B58FB0CDE90131002145
:10042000059105497944CDE9031011466846FFF767
:10043000F5FE0FB000BD0000E5FFFFFF0A6802F8FF
:10044000010B0A60704710B5436913B1AFF3008028
:1004500001E0FFF717FF012010BD127800F1240121
:100460000A7000224A700122EDE711684FF0FF3256
:10047000E9E70000074B70B50D467B44FFF7CBFF63
:100480000446284600F008F810B14FF0FF3070BD68
:10049000204670BDD70C0000007B00F08000704744
:1004A000754600F02BF8AE4605006946534620F02D
:1004B0000700854618B020B5FFF77CFEBDE8204058
:1004C0004FF000064FF000074FF000084FF0000B10
:1004D00021F00701AC46ACE8C009ACE8C009ACE8C3
:1004E000C009ACE8C0098D46704710B50446AFF3AB
:1004F00000802046BDE81040FFF747BE0048704727
:100500006C01002000BFFEE708B50121082000F0C3
:10051000BDFA4FF49070ADF8000010208DF8030084
:1005200003208DF802006946054800F06AF84FF490
:100530009071034800F0F9F800F024F908BD0000BC
:10054000000C014070B504460025002018490860E1
:10055000322000F0D9FD00F0CBF9B42000F08EF984
:1005600000F024FA08B1FE2070BD204600F086F9A4
:1005700000F01CFA08B1FD20F6E7012000F09EFD16
:1005800000F0B6F9B52000F079F900F00FFA08B1E3
:10059000FC20E9E7002000F039F9054600F0E0F919
:1005A000012003490860322000F0AEFD2846DBE759
:1005B0009481214270B505460C4600200E49086022
:1005C000322000F0A1FD00F093F9B42000F056F9BC
:1005D00000F0ECF9284600F051F900F0E7F9204668
:1005E00000F04CF900F0E2F900F0BAF901200349FB
:1005F000C1F8940170BD0000948121420080214225
:1006000070472DE9F0410246002500260020002316
:100610000024002791F803C00CF00F0591F803C0E7
:100620000CF0100CBCF1000F03D091F802C04CEAA2
:10063000050591F800C0BCF1000F31D0146800200E
:100640002BE04FF0010C0CFA00F3B1F800C00CEAFB
:1006500003069E4220D183004FF00F0C0CFA03F7E3
:10066000BC4305FA03FC4CEA040491F803C0BCF156
:10067000280F06D14FF0010C0CFA00FCC2F814C090
:100680000AE091F803C0BCF1480F05D14FF0010C0E
:100690000CFA00FCC2F810C0401C0828D1D314602A
:1006A000B1F800C0BCF1FF0F34DD546800202EE02B
:1006B00000F1080C4FF0010808FA0CF3B1F800C083
:1006C0000CEA03069E4221D183004FF00F0C0CFA76
:1006D00003F7BC4305FA03FC4CEA040491F803C099
:1006E000BCF1280F05D100F1080C08FA0CF8C2F88B
:1006F000148091F803C0BCF1480F07D100F1080C39
:100700004FF0010808FA0CF8C2F81080401C0828C5
:10071000CED35460BDE8F0810246002093680B40C0
:100720000BB1012000E0002070470161704700BF5D
:10073000FEE7000010B500200F4908600F48006870
:1007400020F470200D4908600846006840F44030ED
:10075000086000200A49C1F8B001052000F0D4FC6F
:10076000012005490860052000F0CEFC0020044966
:10077000C1F8AC0110BD0000AC01214204080140E9
:100780000000214208B50121042000F07FF94FF458
:10079000C050ADF8000010208DF8030003208DF844
:1007A000020069460448FFF72CFF4FF4C05102488D
:1007B000FFF7BBFF08BD00000008014010B5002096
:1007C0000F4908600F48006820F470200D49086048
:1007D0000846006840F44030086001200A49C1F82A
:1007E000B001052000F090FC0120054908600520BB
:1007F00000F08AFC00200449C1F8AC0110BD0000E3
:10080000AC012142040801400000214270B50546B8
:1008100000241748006820F4702015490860084635
:10082000006840F400200860002616E0002011490E
:100830000860322000F068FC01200F49C1F8AC01CB
:100840006006040E0B487C38006808B1601CC4B216
:10085000322000F059FC701CC6B2082EE6DB15B938
:10086000FFF7ACFF01E0FFF765FF204670BD000019
:1008700004080140AC0121420000214270B5044649
:100880001848006820F4702016490860084600687F
:1008900040F44030086000201349086000251EE045
:1008A000E00920B101201049091D086003E0002083
:1008B0000D49091D08606006040E322000F024FC7A
:1008C000012009490860322000F01EFC0020074981
:1008D000C1F8AC01322000F017FC681CC5B2082D2D
:1008E000DEDB70BD04080140AC0121420000214262
:1008F00010B51848006820F47020164908600846B2
:10090000006840F440300860012013490860134932
:10091000C1F8AC0101030F48001FFFF7FDFE08B945
:10092000002010BD052000F0EFFB00200A49086000
:100930004FF480510748001FFFF7EEFE08B9002072
:10094000EFE7052000F0E0FB00200349091F0860E5
:100950000120E6E704080140B001214200002142E5
:1009600010B50F48006820F470200D490860084653
:10097000006840F44030086000200A4908600A49D5
:10098000C1F8B001052000F0BFFB01200549086057
:100990000549C1F8B001052000F0B6FB10BD00000C
:1009A00004080140AC0121420000214210B500249E
:1009B0001448006820F47020124908600846006856
:1009C00040F40020086001200F49086000F09CFB03
:1009D00001200E49C1F8AC0100F096FB07E0601C55
:1009E000C4B2FA2C03DDFFF7BBFF012010BD06489F
:1009F000803800680028F2D10349091F086000BF51
:100A0000F4E7000004080140B00121420000214247
:100A100000BFFEE77047000070B5002100230F22E1
:100A2000C47804B3154C246804F4E064C4F5E064AD
:100A3000210AC1F10403CA40447804FA03F184781E
:100A40001440214309010E4C0678A155047804F0A6
:100A50001F050124AC4005786D11AD0005F1E025BE
:100A6000C5F8004109E0047804F01F050124AC40FA
:100A7000044D0678761145F8264070BD0CED00E077
:100A800000E400E080E100E07047000029B1064A80
:100A900092690243044B9A6104E0034A92698243DB
:100AA000014B9A61704700000010024030B50021F0
:100AB0000022002400232D4D6D6805F00C0121B1AA
:100AC000042905D0082923D105E0294D056022E03D
:100AD000274D05601FE0254D6D6805F47012234D0C
:100AE0006D6805F48034022505EB92421CB9214D56
:100AF000554305600BE01D4D6D6805F400351DB1D3
:100B00001C4D5543056002E0194D5543056002E058
:100B1000174D056000BF00BF144D6D6805F0F00172
:100B20000909154D6B5C0568DD4045600F4D6D682A
:100B300005F4E061090A104D6B5C4568DD40856095
:100B40000A4D6D6805F46051C90A0B4D6B5C456830
:100B5000DD40C560054D6D6805F44041890B074DCA
:100B60006B5CC568B5FBF3F5056130BD0010024054
:100B700000127A0000093D0014000020240000202B
:100B8000704710B500F002F810BD00000CB5002051
:100B9000019000903348006840F48030314908608B
:100BA00000BF3048006800F4003000900198401CFD
:100BB0000190009818B90198B0F5A06FF1D12948BB
:100BC000006800F4003010B10120009001E0002026
:100BD00000900098012843D12348006840F010009D
:100BE000214908600846006820F0030008600846B4
:100BF000006840F0020008601A48406819494860DF
:100C00000846406848600846406840F48060486094
:100C10000846406820F47C1048600846406840F46C
:100C2000E81048600846006840F08070086000BF27
:100C30000C48006800F000700028F9D009484068AE
:100C400020F00300074948600846406840F0020071
:100C5000486000BF0348406800F00C000828F9D144
:100C60000CBD00000010024000200240042808D102
:100C70004FF0E021096941F004014FF0E0221161D9
:100C800007E04FF0E021096921F004014FF0E02274
:100C9000116170477047000010B51348006840F0BC
:100CA00001001149086008464068104908400E4993
:100CB0004860084600680E4908400B49086008462D
:100CC000006820F4802008600846406820F4FE0098
:100CD00048604FF41F008860FFF753FF4FF000603B
:100CE0000449086010BD0000001002400000FFF839
:100CF000FFFFF6FE08ED00E010B540F22551134865
:100D000000F07DF808B3114800F034F9C4B20D2C9E
:100D100009D00F480F49097844540E480078401C08
:100D20000C49087011E00A4A0BA10C48FFF762FA5F
:100D300000210A48074A12788154002005490870AA
:100D400040F22551014800F03FF810BD0038014045
:100D50003E0000202D000020257300000601002029
:100D600010B540F22551134800F049F808B3114876
:100D700000F000F9C4B20D2C09D00F480F490978D2
:100D800044540E480078401C0C49087011E00A4A8F
:100D90000BA10C48FFF72EFA00210A48074A1278E7
:100DA000815400200549087040F22551014800F0A7
:100DB0000BF810BD004400403E0000202D00002034
:100DC000257300000601002010B50022002340F624
:100DD0006A14A14200D100BF0A1201249440A3B2B8
:100DE000DC43048010BD21B1828942F4005282812B
:100DF00004E082894DF6FF731A408281704770B516
:100E00000246002400230025002040F66A16B14265
:100E100000D100BFC1F3421501F01F03012606FAFD
:100E200003F3012D02D19689334006E0022D02D151
:100E3000168A334001E0968A33400C12012606FAE6
:100E400004F41688344013B10CB1012000E00020F6
:100E500070BDF0B50346002400260025002040F6B2
:100E60006A17B94200D100BF1846C1F3421401F01D
:100E70001F06012707FA06F5012C01D10C3004E00A
:100E8000022C01D1103000E014301AB107682F4352
:100E9000076002E00768AF430760F0BD2DE9F04747
:100EA00086B005460E460024A24600BFA146002794
:100EB000B08900B100BF2F462C8A4CF6FF70044069
:100EC000F08804432C82AC894EF6F3100440B088BD
:100ED00031890843718908430443AC81AC8A4FF6D9
:100EE000FF400440B0890443AC8201A8FFF7DEFD57
:100EF0001F48874202D1DDF810A001E0DDF80CA008
:100F0000A88900F4004040B10AEBCA0000EB0A10C7
:100F100031684900B0FBF1F807E00AEBCA0000EBCA
:100F20000A1031688900B0FBF1F86420B8FBF0F0DA
:100F300004012009642101FB1089A88900F4004004
:100F400040B1322000EBC900B0FBF1F000F0070027
:100F5000044308E0322000EB09106421B0FBF1F0FB
:100F600000F00F0004432C8106B0BDE8F0870000BC
:100F70000038014001468888C0F30800704700002F
:100F800010B586B00446012144F20400FFF77EFD4F
:100F90004FF40070ADF8140003208DF816001820EF
:100FA0008DF8170005A91C48FFF72BFB4FF4806054
:100FB000ADF8140004208DF8170005A91648FFF7B6
:100FC00020FB25208DF8000000208DF801008DF811
:100FD000020001208DF803006846FFF71DFD019413
:100FE0000020ADF80800ADF80A00ADF80C00ADF82F
:100FF00010000C20ADF80E0001A90848FFF74EFFC5
:10100000012240F225510548FFF723FF0121034843
:10101000FFF7E9FE06B010BD0008014000380140AE
:1010200000BFFEE700BF704710B5002011490860FF
:10103000322000F069F8FFF75BFCB420FFF71EFCDC
:10104000FFF7B4FC10B1FFF78BFC10BDF420FFF7E5
:1010500015FCC82000F058F8FFF7A8FC10B1FFF706
:101060007FFCF2E7FFF77CFC01200249086000BF2B
:10107000EBE700009481214210B56FF00400FFF708
:10108000F5FD0A4800680A49B0FBF1F0094908700B
:101090000846007800EB4001C1EBC0104FF6FF712D
:1010A00001EAC0000449088010BD000000000020D3
:1010B00000127A00280000202A0000200146114A70
:1010C00012884A434FF0E0235A6100229A611A467F
:1010D000126942F001021A6100BF4FF0E02210696C
:1010E00000F001021AB100F48032002AF5D04FF06E
:1010F000E022126922F001024FF0E0231A6100227F
:101100009A6170472A0000200146114A12784A432A
:101110004FF0E0235A6100229A611A46126942F0A8
:1011200001021A6100BF4FF0E022106900F00102D5
:101130001AB100F48032002AF5D04FF0E022126993
:1011400022F001024FF0E0231A6100229A617047F9
:101150002800002000BF054A128802F04002002A41
:10116000F9D0C2B2014B1B1D1A80704700380140F4
:101170001CB50020224908603220FFF7C5FFFFF7A9
:10118000B7FBB420FFF77AFBFFF710FC0220FFF754
:1011900075FBFFF70BFCFFF7E3FB3220FFF7B4FF13
:1011A000FFF7A6FBB520FFF769FBFFF7FFFB002465
:1011B00006E00120FFF72AFB0DF80400601CC4B212
:1011C000072CF6DB0020FFF721FB0DF80400FFF7EA
:1011D000C7FB01200A4908609DF801009DF8001036
:1011E00000EB0120074908809DF803009DF80210DC
:1011F00000EB0120034948809DF8040008711CBDE4
:1012000094812142340000200024FFF735FF4FF481
:10121000E130FFF7B5FEFFF777F9FFF705FF9620FE
:10122000FFF74CFF46E00020FFF78CF90446102C36
:1012300020D0902C04D0982C06D0992C2CD122E0D0
:10124000102000F09FF830E0FFF792FF0A20FFF730
:1012500035FF1948008842F21071884205DA1648B5
:101260004288018815A0FEF7B9FF4FF49670FFF78A
:1012700025FF1AE0FFF7D8FE16A0FEF7AFFF962075
:10128000FFF71CFF00BFE020FFF75CF90446214692
:1012900019A0FEF7A3FF00BF00F042F81AA0FEF766
:1012A0009DFF9620FFF70AFF00BF00BF4FF47A7042
:1012B000FFF704FFB7E7000034000020636F32201F
:1012C0003D2025642074766F63203D2025640D0A3F
:1012D0000000000043435338313120547269657374
:1012E00020746F20656E74657220417070204D6FA0
:1012F0006465210D0A0000004552524F52203D20E6
:1013000025640D0A00000000434353383131205456
:101310007269657320746F2072657365740D0A00BD
:1013200010B50020154908603220FFF7EDFEFFF7E9
:10133000DFFAB420FFF7A2FAFFF738FBFF20FFF730
:101340009DFAFFF733FB1120FFF798FAFFF72EFB0A
:10135000E520FFF793FAFFF729FB7220FFF78EFADB
:10136000FFF724FB8A20FFF789FAFFF71FFBFFF73F
:10137000F7FA01200249C1F8940110BD948121427D
:101380000080214210B5044621460120FFF712F9E2
:1013900010BD0000B413000800000020340000005D
:1013A00028010008E8130008340000209C07000012
:1013B0004401000800A24A040000000000000000F0
:1013C00001020304060708090000000001020304EB
:1013D00001020304060708090204060800000000D1
:0813E000C8000000000000003D
:04000005080000ED02
:00000001FF
